:1000000076C0000091C000008FC000008DC00000CD
:100010008BC0000089C0000087C0000085C00000C0
:1000200083C0000081C000007FC000007DC00000D0
:100030007BC0000054C5000077C0000075C0000000
:1000400073C0000071C000006FC000006DC00000F0
:100050006BC0000069C0000067C0000065C0000000
:1000600063C0000061C000005FC000005DC0000010
:100070005BC0000059C0000057C0000055C0000020
:1000800053C0000051C000004FC00000F900FD0047
:10009000270130013401520174019E01AA01C202FC
:1000A000C602F0020403060330035103DE037B03A0
:1000B000A503C003D003BB031B04EE03F303F80343
:1000C000FD03020407041F040C0411041F0416049A
:1000D0001F041B042C04300462046A0492049A0472
:1000E000B804C004E804F00410051C051E05112422
:1000F0001FBECFEFD0E4DEBFCDBF13E0A0E0B1E084
:10010000E2E7FDE000E00BBF02C007900D92AC36C5
:10011000B107D9F723E0ACE6B3E001C01D92A938DE
:10012000B207E1F7DFD523C66BCF181619065CF0CE
:100130000895000021503109E1F74F5F5F4F8417A8
:10014000950719F4089540E050E027E033E0F1CF3F
:100150005E9888B95F9A00005F9882E090E0E5CFF2
:10016000089581E0F5CF0895813118F48158F0CFDA
:1001700008958155EDCF089584E690E0D6DF88E3B9
:10018000E7DF86E0E5DF8FE0E3DF81E0E1DF8AE0C3
:1001900090E0CBCF08955E9A88B95F9A00005F988F
:1001A00081E090E0C2CF08950F931F93CF93DF9328
:1001B000182FEB01D6DF8881882351F001E0010F71
:1001C000812FD2DF8991E7DF102F88818111F6CF4F
:1001D000DF91CF911F910F910895E09180038E2FB1
:1001E00090E08930910508F0C6C0FC01EA5BFF4F42
:1001F0009FC581E080938003C1C080917A03909174
:100200007B03A0917C03B0917D03803A2FE092079D
:10021000A105B10560F010927A0310927B03109251
:100220007C0310927D0382E080938003ACC08853EE
:100230009F4FAF4FBF4F80937A0390937B03A09360
:100240007C03B0937D0381E08093800397C080910D
:100250008603813009F097C083E08093800308957E
:1002600080918603813001F080917A0390917B0325
:10027000A0917C03B0917D03803A2FE09207A10505
:10028000B105F8F488539F4FAF4FBF4F80937A0367
:1002900090937B03A0937C03B0937D0384E08093D1
:1002A000800376C080917A0390917B03A0917C03B8
:1002B000B0917D03803A2FE09207A105B10558F572
:1002C00003C080E090E0DC0188539F4FAF4FBF4FE9
:1002D00080937A0390937B03A0937C03B0937D0378
:1002E00086E0809380035EC080917A0390917B03C7
:1002F000A0917C03B0917D03803A2FE09207A10585
:10030000B10560F010927A0310927B0310927C0387
:1003100010927D0313C080E090E0DC0188539F4F72
:10032000AF4FBF4F80937A0390937B03A0937C03DE
:10033000B0937D0386E08093800334C08091860370
:10034000882321F088E080938003089587E08093DC
:1003500080032DC075D2809180038430C9F028F4C9
:10036000813061F0823079F008958630D9F0A8F0BC
:100370008730E9F0089510928003089568E871E0ED
:1003800081E012CF089567E971E081E00DCF089513
:1003900065E671E081E008CF089566E471E081E0F0
:1003A00003CF089565E271E081E0FECE089564E038
:1003B00071E081E0F9CE089580917E03813041F0B3
:1003C00018F0823079F13AC081E080937E0339C021
:1003D0008091760390917703A0917803B09179038F
:1003E000803A2FE09207A105B10560F010927603E4
:1003F00010927703109278031092790382E0809331
:100400007E0324C088539F4FAF4FBF4F8093760326
:1004100090937703A0937803B093790381E080935E
:100420007E030FC080918603882381F0D6DE809101
:100430007E03813031F0823069F408C010927E036F
:1004400008956EEA71E081E0AFCE089569EB71E046
:1004500081E0AACE089580918503813061F018F083
:10046000823049F172C080917103813009F07DC002
:100470008093850371C080918701833010F49CDFE5
:1004800064C080918301833040F410927103109214
:1004900085038DE080937F030895809184038130EC
:1004A00009F05AC080918603882309F455C082E080
:1004B0008093850356C080918403813009F051C038
:1004C00080918603882309F44CC08091850188308F
:1004D00070F0809183018350809383018091870124
:1004E00082508093870181E08093850335C09CEF23
:1004F000980F943070F4809183018250809383012F
:100500008091870182508093870181E080938503E9
:1005100023C0843070F480918301815080938301E3
:100520008091870182508093870181E080938503C9
:1005300013C0809183018330A0F410927103109254
:1005400085038DE080937F0308958091850381303A
:1005500019F0823031F0089563EC71E081E024CE2F
:1005600008956DEC71E081E01FCE0895E0917F0366
:100570008E2F90E08E30910508F020C1FC01E15BE8
:10058000FF4FD6C381E080937F0328C1809172031F
:1005900090917303A0917403B0917503803A2FE09A
:1005A0009207A105B10560F01092720310927303D7
:1005B000109274031092750382E080937F0313C13D
:1005C00088539F4FAF4FBF4F809372039093730335
:1005D000A0937403B093750381E080937F03FEC002
:1005E00080918603882309F4FEC0809184038031C2
:1005F00021F484E080937F0300C1803209F0F3C0CE
:1006000083E080937F03F4C0D7DEDBC08091720368
:1006100090917303A0917403B0917503803A2FE019
:100620009207A105B10560F0109272031092730356
:10063000109274031092750385E080937F03E2C0EB
:1006400088539F4FAF4FBF4F8093720390937303B4
:10065000A0937403B093750384E080937F03CDC0AF
:1006600080918403813089F480918603882309F482
:10067000C9C080918501883020F08DE080937F0390
:10068000DAC086E080937F03C2C0823009F0BAC02E
:1006900080918603882309F4B5C088E080937F03A6
:1006A000BBC08091720390917303A0917403B091C9
:1006B0007503803A2FE09207A105B10560F0109212
:1006C000720310927303109274031092750385E005
:1006D00080937F0397C088539F4FAF4FBF4F809346
:1006E000720390937303A0937403B093750386E031
:1006F00080937F038CC08091720390917303A091CB
:100700007403B0917503803A2FE09207A105B105FB
:1007100060F010927203109273031092740310929F
:10072000750389E080937F037CC088539F4FAF4F50
:10073000BF4F8093720390937303A0937403B0939D
:10074000750388E080937F0367C0809184038031C4
:1007500041F480918603882371F08CE080937F03BD
:100760000895803241F480918603882321F08AE045
:1007700080937F03089581E0809371036CDE21C034
:1007800080918401883020F480918601883020F0A7
:100790008DE080937F034FC08BE080937F0346C042
:1007A00080918403813009F041C0809186038823C1
:1007B00009F43CC08CE080937F03089510927F037E
:1007C0000895E0917F038E2F90E0FC013197ED308A
:1007D000F10508F034C0E35AFF4FAAC261EE71E0A0
:1007E00081E0E2CC08956FEF71E081E0DDCC089507
:1007F00065E172E081E0D8CC089565E372E081E0C4
:10080000D3CC08956BE472E081E0CECC089563E62A
:1008100072E081E0C9CC089564E772E081E0C4CC65
:10082000089563E972E081E0BFCC089567EA72E061
:1008300081E0BACC089561EC72E081E0B5CC089516
:10084000E09183038E2F90E08D30910508F0F8C081
:10085000FC01E659FF4F6CC281E08093830302C123
:1008600080918603882309F4FDC080918403813040
:1008700099F4809187018E5F809387018091840134
:100880008F5F80938401809185018F5F80938501C4
:1008900082E0809383030895823009F0E3C0809161
:1008A0008701825080938701809186018E5F8093BB
:1008B00086018091840181508093840182E080933D
:1008C00083030895809186038111E4C083E08093BF
:1008D0008303CDC080918603882309F4C8C080912A
:1008E0008403813071F4809185018150809385016A
:1008F000809184018E5F8093840184E080938303E0
:100900000895823009F0B3C0809185018E5F809395
:1009100085018091840181508093840184E08093DB
:1009200083030895809186038111B4C085E080938C
:100930008303A2C080918603882309F49DC080911F
:100940008403813049F4809186018E5F8093860113
:1009500086E0809383030895823009F08DC08091F2
:10096000860182508093860186E0809383030895F8
:100970008091860381118EC087E08093830381C0BC
:1009800080918603882309F47CC0809184038130A0
:1009900071F4809187018150809387018091850156
:1009A00081508093850188E080938303089582308D
:1009B00009F067C0809187018F5F809387018091E4
:1009C00085018F5F8093850188E08093830308957C
:1009D0008091860381115EC089E08093830356C0B5
:1009E00080918603882309F451C08091840381306B
:1009F00031F4109287018AE0809383030895823056
:100A000009F044C0809185018F5F809385018091BA
:100A100087018F5F809387018AE080938303089525
:100A200080918701811104C08BE080938303089536
:100A30008CE0809383030895BFDC05C097DD03C07D
:100A4000109283030895809183038530A9F028F4E0
:100A5000813041F0833059F00895873091F089302A
:100A6000A9F0089569ED72E081E09ECB089565EFED
:100A700072E081E099CB089563E173E081E094CB6B
:100A8000089560E373E081E08FCB08956EE473E036
:100A900081E08ACB08958BE0809381008DE790E020
:100AA000909389008093880082E080936F00109279
:100AB0008500109284008091000190910101A09125
:100AC0000201B091030180936C0390936D03A09396
:100AD0006E03B0936F038FB780688FBF08951F9226
:100AE0000F920FB60F9211248F939F93AF93BF93E2
:100AF00080916C0390916D03A0916E03B0916F0390
:100B00000197A109B10980936C0390936D03A093A1
:100B10006E03B0936F03892B8A2B8B2B99F481E0A2
:100B2000809370038091000190910101A0910201D6
:100B3000B091030180936C0390936D03A0936E03B7
:100B4000B0936F03BF91AF919F918F910F900FBEA4
:100B50000F901F901895609300017093010180938E
:100B600002019093030160936C0370936D03809373
:100B70006E0390936F03089584E082B912B81092C7
:100B8000840380E090E071E062E020B12727422FEB
:100B9000417050E09A01082E02C0220F331F0A94C0
:100BA000E2F730918403232B2093840362B912B8B7
:100BB00001968830910549F70895DEDF809184031E
:100BC000811108C080918603882309F45CC01092CB
:100BD00086030895813041F480918603811153C0CA
:100BE00081E0809386030895823041F480918603EA
:100BF000811149C081E0809386030895803141F4DA
:100C00008091860381113FC081E08093860308951F
:100C1000803241F480918603811135C081E0809358
:100C200086030895883031F58091860381112BC0A9
:100C300081E0809386036091870170E080E090E01E
:100C400080D06091860170E080E090E07AD0609181
:100C5000850170E080E090E074D06091840170E0E4
:100C600080E090E06ED060917F0370E080E090E0E3
:100C700068C00895843039F480918603811103C0DF
:100C800081E080938603089580918701883019F46C
:100C90008FEF85B90895873019F48EEF85B90895DF
:100CA000863019F48CEF85B90895853019F488EFF2
:100CB00085B90895843019F480EF85B9089583309B
:100CC00019F480EE85B90895823019F480EC85B965
:100CD0000895813019F480E885B90895811101C023
:100CE00015B808958FEF87B918B88AB91BB884B9B9
:100CF00015B896EF91B982B91092800310928303D0
:100D000010927E0310927F031092860335DF68EC09
:100D100070E080E090E01FDFBEDE2EDA4EDFB4DF51
:100D20005CDA809170038823E1F310927003F6CFB0
:100D3000EE0FFF1F0024001C0BBE0790F691E02D64
:100D400009940196272F02D000C0262FF999FECFD3
:100D500092BD81BDF89A019700B4021639F01FBA0E
:100D600020BD0FB6F894FA9AF99A0FBE0895F89438
:020D7000FFCFB3
:100D720001000000596F75206D75737420687572DB
:100D8200727920616E6420627579206D6564696391
:100D9200696E6521005468652063697479206973FE
:100DA200206A75737420706173742074686520669C
:100DB2006F7265737400596F75277265206F6E6567
:100DC200206F6620746865206665772077686F20DB
:100DD2006C697665005468652076696C6C6167653C
:100DE20020697320756E646572206120706C616782
:100DF20075650007050505054C6F6E652054726127
:100E020076656C6C657200506C61792850726573FE
:100E12007320416E7920427574746F6E2900596F88
:100E220075204661696C65640047616D65204F7687
:100E320065720041747461636B28412900426F74CA
:100E420068206F6620796F752061747461636B210D
:100E520000596F7520617265206174206120637290
:100E62006F7373726F61642C72656164793F0046BF
:100E72006F726573742855502920486F6D65284438
:100E82004F574E2900596F75206465636964656424
:100E9200206E6F7420746F20676F2E2E2E61207368
:100EA20068616D650041206C6F6720626C6F636BD7
:100EB2007320796F757220776179004C69667420AE
:100EC2006974284129205475726E206177617928EE
:100ED200422900596F752061726520746F6F207707
:100EE20065616B00596F75206861766520656E6378
:100EF2006F756E746572656420612062616E6469EB
:100F02007421004669676874285550292052756E0D
:100F120028444F574E2900596F7520776572652016
:100F2200756E61626C6520746F20657363617065B4
:100F320000596F752077656E7420746F2061206E82
:100F420065772061726561210041726520796F7554
:100F520020796F756E67284129206F72206F6C644B
:100F62002842293F0041726520796F7520736D61B7
:100F72006C6C284129206F72206C6172676528426F
:100F8200293F0041726520796F7520736861727024
:100F9200284129206F722064756C6C2842293F0019
:100FA20041726520796F75207765616B2841292030
:100FB2006F72207374726F6E672842293F0041720C
:100FC2006520796F7520696C6C284129206F722029
:0C0FD2006865616C7468792842293F0052
:00000001FF
